:020000040800F2
:10000000B806002031020008AD080008AF0800085B
:10001000B1080008B3080008B50800080000000097
:10002000000000000000000000000000B708000809
:10003000B908000800000000BB080008BF0800085D
:100040004B0200084B0200084B0200084B0200085C
:100050004B0200084B0200084B0200084B0200084C
:100060004B0200084B0200084B0200084B0200083C
:100070004B0200084B0200084B0200084B0200082C
:100080004B0200084B0200084B0200084B0200081C
:100090004B0200084B0200084B0200084B0200080C
:1000A0004B0200084B0200084B0200084B020008FC
:1000B0004B0200084B0200084B0200084B020008EC
:1000C0004B0200084B0200084B0200084B020008DC
:1000D0004B0200084B0200084B0200084B020008CC
:1000E0004B0200084B0200084B0200084B020008BC
:1000F0004B0200084B0200084B0200084B020008AC
:100100004B0200084B0200084B0200084B0200089B
:100110004B0200084B0200084B0200084B0200088B
:100120004B0200084B0200084B0200084B0200087B
:100130004B0200084B0200084B0200084B0200086B
:100140004B0200084B0200084B0200084B0200085B
:100150004B0200084B0200084B0200084B0200084B
:100160004B0200084B0200084B0200084B0200083B
:100170004B0200084B0200084B0200084B0200082B
:100180004B0200084B02000800F002F800F040F8B3
:100190000AA090E8000C82448344AAF10107DA45E2
:1001A00001D100F035F8AFF2090EBAE80F0013F0F4
:1001B000010F18BFFB1A43F001031847400B000062
:1001C000600B0000103A24BF78C878C1FAD85207F3
:1001D00024BF30C830C144BF04680C6070470000C1
:1001E0000023002400250026103A28BF78C1FBD840
:1001F000520728BF30C148BF0B6070471FB500F0E1
:1002000077FD9DE8030000F095FC1FBD10B510BD03
:1002100000F0ECFC1146FFF7F1FF00F0E9FA00F006
:100220000AFD03B4FFF7F2FF03BC00F03BFD000042
:100230000948804709480047FEE7FEE7FEE7FEE77A
:10024000FEE7FEE7FEE7FEE7FEE7FEE704480549B6
:10025000054A064B704700006B0900088901000839
:10026000B8000020B8060020B8020020B802002024
:1002700070B55A484168491C4160816811B1816874
:10028000491E8160AFF300800024554E18E006EB54
:100290008405686890B1017B81B1826872B1521E99
:1002A000826069680AD14869096988476868016895
:1002B00081606868416809B900210173641CE4B277
:1002C0003078A042E3D870BD464801684FF47A7098
:1002D000B1FBF0F0401EB0F1807F12D24FF0E0226F
:1002E0005061414BF02083F8140D002090610720ED
:1002F00010613E48B1FBF0F13848C1600121017046
:100300007047FEE735480078002805D04FF0E02020
:10031000016941F00201016170474FF0E02001697D
:1003200021F00201016170472DE9F0472C4C054690
:10033000DDF8209020781E4617468846052802D30F
:100340000020BDE8F087182000F07EFB0028F8D0E0
:100350000560C0E901850773C0E90469217804EBF1
:10036000810148602178491C2170EAE71C4B30B4B8
:1003700000211A7806E003EB81046468844203D00C
:10038000491CC9B28A42F6D88A4218D003EB8100D0
:100390004068EFF3108472B605E003EB8102491C5C
:1003A0009568C9B255601A78521E8A42F5DC1978F0
:1003B000491E197004B962B630BC00F074BB30BC81
:1003C0007047002101737047012101737047016874
:1003D00081607047416070470160704700000020F5
:1003E00028000020140000200FE000E0C0C62D000F
:1003F0001CB500200321CDE9000103464FF47044F1
:1004000001222146184800F0F5F817481A300480F8
:100410001CBD1CB500210220CDE900010B460A4697
:100420000121124800F0E6F81CBD10480069C10720
:100430000F4805D0017829B901210170084670479D
:10044000002101700020704708480069C107084872
:1004500003D0012101700020704701780029FAD0F3
:100460000021017001207047000C02400000024092
:100470001000002070B50446008AE168488302201D
:1004800000F05CF8E168208A08830A2000F056F842
:10049000E168208A48832C482289616804E0401E74
:1004A00002D2BFEE000A70BD0B691342F7D00025DF
:1004B00003E001206D1C00F041F8606800692189AB
:1004C0000842F6D100EE105ADFED200AB8EE400ADD
:1004D00020EE200A84ED000A70BD2DE9FC411D4686
:1004E00017460E460446DDF82080FFF7EDFE6660F5
:1004F0002781E5600126A4F810800227CDE9007667
:10050000414600233246284600F074F8CDE90076D3
:10051000002321891A46606800F06CF8E168208A9F
:1005200048832046FFF7A6FFB5EEC00AF1EE10FAA9
:1005300002DB0120BDE8FC810020FBE704490968DB
:100540004843401EFDD2704740420F007AC18C3CA8
:100550000C000020A3490844C0F38F2070472DE908
:10056000F04F9A46DDE909B889460346FFF7F2FFE6
:10057000C5B200204FF0030E0121814011EA090F9E
:1005800028D0994E36F815400C4326F81540DF6800
:1005900044000EFA04F6B7430BFA04FC47EA0C07D2
:1005A000DF601F6802FA04FCB74347EA0C071F60CC
:1005B000012A01D0022A0DD15F6889B28F430AFA5D
:1005C00000F189B20F435F60996808FA04F4B143FF
:1005D00021439960401CC0B21028CDD3BDE8F08FF4
:1005E00000B5FFF7B7FF0121814080480268114341
:1005F000016000BDFCB51646DDE907C50C000746E5
:1006000008D0FFF7EDFFCDE900C532462146384658
:10061000FFF7A5FFFCBD2DE9FC4F9946DDE90BB7BF
:1006200092460D00064622D0FFF7DAFF0022012194
:100630004FF00F0C01FA02F028420DD0D00806EB63
:100640008003186A5407E40E0CFA04F820EA080044
:1006500007FA04F420431862521C102AEAD3CDE9A9
:10066000009B5346022229463046FFF778FFBDE83B
:10067000FC8FF0B50E460546FFF76CFF00225A4985
:10068000C4B24FF0010C03270CFA02F333420CD032
:1006900028684FEA420E07FA0EFE40EA0E00286074
:1006A00031F81400984321F81400521CD2B2102AD9
:1006B000EAD3F0BDF0B500220125032605FA02F3C6
:1006C0000B4205D00468570006FA07F39C43046008
:1006D000521CD2B2102AF1D3F0BDF0B5002201278E
:1006E000032607FA02F33C460B4208D00568530084
:1006F00006FA03FC25EA0C059C4025430560521CC4
:10070000D2B2102AEDD3F0BDF0B5002201250326A8
:1007100005FA02F30B4205D00468570006FA07F306
:100720001C430460521CD2B2102AF1D3F0BDF0B5C4
:10073000002201260324022706FA02F30B4209D005
:100740000568530004FA03FC25EA0C0507FA03F3D5
:100750001D430560521CD2B2102AEDD3F0BDF0B596
:1007600000230127032507FA03F40C4209D0C668C9
:100770005C0005FA04FC26EA0C0602FA04F426439F
:10078000C6605B1CDBB2102BEDD3F0BD41F48032B0
:10079000C261C161C261C169C0697047002102E0E4
:1007A000491C89B240080128FAD80846704700B5AC
:1007B000FFF7D0FE012181400C4802688A430260A5
:1007C00000BD00B5FFF7C6FE074931F8100000BDB7
:1007D00000B5FFF7BFFE044931F81000C04380B2F6
:1007E00000BD00000000FEBF400000203038024085
:1007F00086B000F0BAF8FFF767FDFFF7F9FD274E66
:100800004FF480453580022024490090244B01227A
:10081000183901A8FFF761FEAF10B41C80B1DFF8F2
:1008200084904FF4A04801A8FFF724FE9DED010A33
:10083000B5EEC00AF1EE10FA0CD23580278012E036
:10084000164C241F206880F4A0402060642000F033
:100850000EF8F7E710EE100A484502DD37802580D4
:1008600001E0A4F80080642000F001F8DBE70E4905
:1008700008B50A680092EFF3058242B14FF0E0211B
:10088000002809D00A69D203FAD5401EF8E70A68A1
:10089000009BD21A8242FAD308BD0000180C024015
:1008A0000008024000004842040000207047FEE7B4
:1008B000FEE7FEE7FEE7704770477047704710B5E8
:1008C000FFF7D6FC10BD00000CB500225449009281
:1008D0000192086840F4803008604FF4A043086833
:1008E00000F4003001900098401C0090019810B96D
:1008F00000989842F3D10868800334D50120019014
:1009000047484030026842F0805202604548026821
:1009100042F44042026042480830026802600268C5
:1009200042F400420260026842F4A0520260031FD7
:100930003D4A1A600A6842F080720A600A689201B1
:10094000FCD53A4940F205720A60016821F00301C2
:100950000160016841F0020101600168C1F3810199
:100960000229FAD10CBD01920CBD314810B50168C5
:1009700041F4700101602A48016841F00101016001
:10098000274A00210832116002682A4B1A4002608F
:10099000031D294A1A60026822F48022026020485E
:1009A0000C300160FFF790FF21494FF00060803963
:1009B000086010BD70B51A4D083528681F4B2049D6
:1009C00010F00C0004D01F4E042803D0082803D0D8
:1009D0000B601BE00E6019E0114A121D1068C0F395
:1009E0008054106800F03F0014B1B6FBF0F001E055
:1009F000B3FBF0F013681268C3F388135843C2F3D3
:100A00000142521C5200B0FBF2F0086028680C4A08
:100A1000C0F30310121D105C0A68C2400A6070BD6A
:100A2000003802400070004008544007003C02407B
:100A300088ED00E0FFFFF6FE103000240024F400F3
:100A40001400002040787D0170B5064600F056F88D
:100A5000056806F10B0020F00704B4429CBF00209B
:100A600070BD2B466A68BAB11068A04210D304F179
:100A7000080188423CBF5068586007D3516810197C
:100A800041601168091B016058601460101D70BD41
:100A900013465268002AE7D12146284600F036F86E
:100AA0000028DED170BD70B50446051F00F026F8A1
:100AB0000068002C14BF446870BD002C18BFAC4205
:100AC0003CBF20466468F8D301680A18AA4218BFE0
:100AD000456003D12A680546114401602868411920
:100AE000A1421CBF6C6070BD6168696021680844E8
:100AF000286070BD7047704770470000004870471D
:100B000060000020704770477047704738B5044652
:100B10000A4600206946AFF30080002808BF38BDB0
:100B200002460099204600F03FF8012038BD012020
:100B300000F054B8F8B5AFF30080054600200C462D
:100B4000102000BF0646A819A0420DD932466946BA
:100B50000020AFF30080070008BF00F03FF80098C6
:100B6000A04218BF0546C419FFF7C8FF0560074635
:100B7000F01D20F007004619284600F00AF8B4429C
:100B800008BFF8BDA21B31463868BDE8F84000F048
:100B90000BB800210160C0E90110704710207047B8
:100BA0000048704758000020034640688C460028E3
:100BB00018BF88423CBF03464068F8D31868184401
:100BC000884207D00CF1030020F00700001D411AF5
:100BD000521A0146081D0A60FFF765BF10B500F004
:100BE00039F8BDE8104000F02FB870477546FFF7A0
:100BF000D7FFAE4605006946534620F007008546FC
:100C000018B020B5FFF722FBBDE820404FF00006EA
:100C10004FF000074FF000084FF0000B21F00701E4
:100C2000AC46ACE8C009ACE8C009ACE8C009ACE827
:100C3000C0098D46704710B50446AFF300802046CA
:100C4000BDE81040FFF7EDBA002801D000F02AB847
:100C50007047000010B5012805D0002103A000F066
:100C600027F8012010BD09A1F8E7000053494752B9
:100C7000544D454D3A204F7574206F66206865616C
:100C800070206D656D6F7279000000003A20486534
:100C90006170206D656D6F727920636F727275700F
:100CA0007465640001491820ABBEFEE7260002000F
:100CB00070B505460C460A2000E06D1C00F011F8E6
:100CC00035B128780028F8D102E0641C00F009F85A
:100CD00014B120780028F8D1BDE870400A20AFF3A5
:100CE000008008B569468DF800000320ABBE08BD42
:100CF0004FF04070E1EE100A704700001C0D000834
:100D00000000002028000000C4010008440D000875
:100D10002800002090060000E0010008000000000C
:100D200000000000000000000000000000000000C3
:100D3000007A030A00000000000000000102030422
:040D40000607080991
:040000050800018965
:00000001FF
